{
  "_format": "hh-sol-artifact-1",
  "contractName": "XFlipToken",
  "sourceName": "contracts/XFlipToken.sol",
  "abi": [
    {
      "inputs": [
        {
          "internalType": "uint256",
          "name": "cap",
          "type": "uint256"
        }
      ],
      "stateMutability": "nonpayable",
      "type": "constructor"
    },
    {
      "anonymous": false,
      "inputs": [
        {
          "indexed": true,
          "internalType": "address",
          "name": "owner",
          "type": "address"
        },
        {
          "indexed": true,
          "internalType": "address",
          "name": "spender",
          "type": "address"
        },
        {
          "indexed": false,
          "internalType": "uint256",
          "name": "value",
          "type": "uint256"
        }
      ],
      "name": "Approval",
      "type": "event"
    },
    {
      "anonymous": false,
      "inputs": [
        {
          "indexed": true,
          "internalType": "address",
          "name": "from",
          "type": "address"
        },
        {
          "indexed": true,
          "internalType": "address",
          "name": "to",
          "type": "address"
        },
        {
          "indexed": false,
          "internalType": "uint256",
          "name": "value",
          "type": "uint256"
        }
      ],
      "name": "Transfer",
      "type": "event"
    },
    {
      "inputs": [
        {
          "internalType": "address",
          "name": "owner",
          "type": "address"
        },
        {
          "internalType": "address",
          "name": "spender",
          "type": "address"
        }
      ],
      "name": "allowance",
      "outputs": [
        {
          "internalType": "uint256",
          "name": "",
          "type": "uint256"
        }
      ],
      "stateMutability": "view",
      "type": "function"
    },
    {
      "inputs": [
        {
          "internalType": "address",
          "name": "spender",
          "type": "address"
        },
        {
          "internalType": "uint256",
          "name": "amount",
          "type": "uint256"
        }
      ],
      "name": "approve",
      "outputs": [
        {
          "internalType": "bool",
          "name": "",
          "type": "bool"
        }
      ],
      "stateMutability": "nonpayable",
      "type": "function"
    },
    {
      "inputs": [
        {
          "internalType": "address",
          "name": "account",
          "type": "address"
        }
      ],
      "name": "balanceOf",
      "outputs": [
        {
          "internalType": "uint256",
          "name": "",
          "type": "uint256"
        }
      ],
      "stateMutability": "view",
      "type": "function"
    },
    {
      "inputs": [
        {
          "internalType": "address",
          "name": "from",
          "type": "address"
        },
        {
          "internalType": "uint256",
          "name": "amt",
          "type": "uint256"
        }
      ],
      "name": "burn",
      "outputs": [],
      "stateMutability": "nonpayable",
      "type": "function"
    },
    {
      "inputs": [],
      "name": "cap",
      "outputs": [
        {
          "internalType": "uint256",
          "name": "",
          "type": "uint256"
        }
      ],
      "stateMutability": "view",
      "type": "function"
    },
    {
      "inputs": [],
      "name": "decimals",
      "outputs": [
        {
          "internalType": "uint8",
          "name": "",
          "type": "uint8"
        }
      ],
      "stateMutability": "view",
      "type": "function"
    },
    {
      "inputs": [
        {
          "internalType": "address",
          "name": "spender",
          "type": "address"
        },
        {
          "internalType": "uint256",
          "name": "subtractedValue",
          "type": "uint256"
        }
      ],
      "name": "decreaseAllowance",
      "outputs": [
        {
          "internalType": "bool",
          "name": "",
          "type": "bool"
        }
      ],
      "stateMutability": "nonpayable",
      "type": "function"
    },
    {
      "inputs": [
        {
          "internalType": "address",
          "name": "spender",
          "type": "address"
        },
        {
          "internalType": "uint256",
          "name": "addedValue",
          "type": "uint256"
        }
      ],
      "name": "increaseAllowance",
      "outputs": [
        {
          "internalType": "bool",
          "name": "",
          "type": "bool"
        }
      ],
      "stateMutability": "nonpayable",
      "type": "function"
    },
    {
      "inputs": [
        {
          "internalType": "address",
          "name": "to",
          "type": "address"
        },
        {
          "internalType": "uint256",
          "name": "amt",
          "type": "uint256"
        }
      ],
      "name": "mint",
      "outputs": [],
      "stateMutability": "nonpayable",
      "type": "function"
    },
    {
      "inputs": [],
      "name": "name",
      "outputs": [
        {
          "internalType": "string",
          "name": "",
          "type": "string"
        }
      ],
      "stateMutability": "view",
      "type": "function"
    },
    {
      "inputs": [],
      "name": "owner",
      "outputs": [
        {
          "internalType": "address",
          "name": "",
          "type": "address"
        }
      ],
      "stateMutability": "view",
      "type": "function"
    },
    {
      "inputs": [],
      "name": "symbol",
      "outputs": [
        {
          "internalType": "string",
          "name": "",
          "type": "string"
        }
      ],
      "stateMutability": "view",
      "type": "function"
    },
    {
      "inputs": [],
      "name": "totalSupply",
      "outputs": [
        {
          "internalType": "uint256",
          "name": "",
          "type": "uint256"
        }
      ],
      "stateMutability": "view",
      "type": "function"
    },
    {
      "inputs": [
        {
          "internalType": "address",
          "name": "to",
          "type": "address"
        },
        {
          "internalType": "uint256",
          "name": "amount",
          "type": "uint256"
        }
      ],
      "name": "transfer",
      "outputs": [
        {
          "internalType": "bool",
          "name": "",
          "type": "bool"
        }
      ],
      "stateMutability": "nonpayable",
      "type": "function"
    },
    {
      "inputs": [
        {
          "internalType": "address",
          "name": "from",
          "type": "address"
        },
        {
          "internalType": "address",
          "name": "to",
          "type": "address"
        },
        {
          "internalType": "uint256",
          "name": "amount",
          "type": "uint256"
        }
      ],
      "name": "transferFrom",
      "outputs": [
        {
          "internalType": "bool",
          "name": "",
          "type": "bool"
        }
      ],
      "stateMutability": "nonpayable",
      "type": "function"
    }
  ],
  "bytecode": "0x60a06040523480156200001157600080fd5b5060405162001225380380620012258339810160408190526200003491620002d9565b604080518082018252600a8152692c233634b82a37b5b2b760b11b602080830191825283518085019094526005845264078466c69760dc1b90840152815184939162000084916003919062000233565b5080516200009a90600490602084019062000233565b50505060008111620000f35760405162461bcd60e51b815260206004820152601560248201527f45524332304361707065643a206361702069732030000000000000000000000060448201526064015b60405180910390fd5b608052600580546001600160a01b03191633908117909155620001479062000119601290565b6200012690600a62000356565b620001369063042c1d8062000424565b6200014e60201b620004611760201c565b5062000499565b6001600160a01b038216620001a65760405162461bcd60e51b815260206004820152601f60248201527f45524332303a206d696e7420746f20746865207a65726f2061646472657373006044820152606401620000ea565b8060026000828254620001ba9190620002f2565b90915550506001600160a01b03821660009081526020819052604081208054839290620001e9908490620002f2565b90915550506040518181526001600160a01b038316906000907fddf252ad1be2c89b69c2b068fc378daa952ba7f163c4a11628f55a4df523b3ef9060200160405180910390a35050565b828054620002419062000446565b90600052602060002090601f016020900481019282620002655760008555620002b0565b82601f106200028057805160ff1916838001178555620002b0565b82800160010185558215620002b0579182015b82811115620002b057825182559160200191906001019062000293565b50620002be929150620002c2565b5090565b5b80821115620002be5760008155600101620002c3565b600060208284031215620002eb578081fd5b5051919050565b6000821982111562000308576200030862000483565b500190565b600181815b808511156200034e57816000190482111562000332576200033262000483565b808516156200034057918102915b93841c939080029062000312565b509250929050565b60006200036760ff8416836200036e565b9392505050565b6000826200037f575060016200041e565b816200038e575060006200041e565b8160018114620003a75760028114620003b257620003d2565b60019150506200041e565b60ff841115620003c657620003c662000483565b50506001821b6200041e565b5060208310610133831016604e8410600b8410161715620003f7575081810a6200041e565b6200040383836200030d565b80600019048211156200041a576200041a62000483565b0290505b92915050565b600081600019048311821515161562000441576200044162000483565b500290565b600181811c908216806200045b57607f821691505b602082108114156200047d57634e487b7160e01b600052602260045260246000fd5b50919050565b634e487b7160e01b600052601160045260246000fd5b608051610d69620004bc6000396000818161017101526108af0152610d696000f3fe608060405234801561001057600080fd5b50600436106100f55760003560e01c806340c10f19116100975780639dc29fac116100665780639dc29fac14610219578063a457c2d71461022c578063a9059cbb1461023f578063dd62ed3e1461025257600080fd5b806340c10f19146101a857806370a08231146101bd5780638da5cb5b146101e657806395d89b411461021157600080fd5b806323b872dd116100d357806323b872dd1461014d578063313ce56714610160578063355274ea1461016f578063395093511461019557600080fd5b806306fdde03146100fa578063095ea7b31461011857806318160ddd1461013b575b600080fd5b610102610265565b60405161010f9190610b53565b60405180910390f35b61012b610126366004610b2a565b6102f7565b604051901515815260200161010f565b6002545b60405190815260200161010f565b61012b61015b366004610aef565b610311565b6040516012815260200161010f565b7f000000000000000000000000000000000000000000000000000000000000000061013f565b61012b6101a3366004610b2a565b610335565b6101bb6101b6366004610b2a565b610357565b005b61013f6101cb366004610a9c565b6001600160a01b031660009081526020819052604090205490565b6005546101f9906001600160a01b031681565b6040516001600160a01b03909116815260200161010f565b61010261037a565b6101bb610227366004610b2a565b610389565b61012b61023a366004610b2a565b6103a8565b61012b61024d366004610b2a565b610428565b61013f610260366004610abd565b610436565b60606003805461027490610ce2565b80601f01602080910402602001604051908101604052809291908181526020018280546102a090610ce2565b80156102ed5780601f106102c2576101008083540402835291602001916102ed565b820191906000526020600020905b8154815290600101906020018083116102d057829003601f168201915b5050505050905090565b600033610305818585610540565b60019150505b92915050565b60003361031f858285610665565b61032a8585856106df565b506001949350505050565b6000336103058185856103488383610436565b6103529190610ba6565b610540565b610376826103676012600a610c01565b6103719084610cac565b6108ad565b5050565b60606004805461027490610ce2565b610376826103996012600a610c01565b6103a39084610cac565b61093a565b600033816103b68286610436565b90508381101561041b5760405162461bcd60e51b815260206004820152602560248201527f45524332303a2064656372656173656420616c6c6f77616e63652062656c6f77604482015264207a65726f60d81b60648201526084015b60405180910390fd5b61032a8286868403610540565b6000336103058185856106df565b6001600160a01b03918216600090815260016020908152604080832093909416825291909152205490565b6001600160a01b0382166104b75760405162461bcd60e51b815260206004820152601f60248201527f45524332303a206d696e7420746f20746865207a65726f2061646472657373006044820152606401610412565b80600260008282546104c99190610ba6565b90915550506001600160a01b038216600090815260208190526040812080548392906104f6908490610ba6565b90915550506040518181526001600160a01b038316906000907fddf252ad1be2c89b69c2b068fc378daa952ba7f163c4a11628f55a4df523b3ef9060200160405180910390a35050565b6001600160a01b0383166105a25760405162461bcd60e51b8152602060048201526024808201527f45524332303a20617070726f76652066726f6d20746865207a65726f206164646044820152637265737360e01b6064820152608401610412565b6001600160a01b0382166106035760405162461bcd60e51b815260206004820152602260248201527f45524332303a20617070726f766520746f20746865207a65726f206164647265604482015261737360f01b6064820152608401610412565b6001600160a01b0383811660008181526001602090815260408083209487168084529482529182902085905590518481527f8c5be1e5ebec7d5bd14f71427d1e84f3dd0314c0f7b2291e5b200ac8c7c3b92591015b60405180910390a3505050565b60006106718484610436565b905060001981146106d957818110156106cc5760405162461bcd60e51b815260206004820152601d60248201527f45524332303a20696e73756666696369656e7420616c6c6f77616e63650000006044820152606401610412565b6106d98484848403610540565b50505050565b6001600160a01b0383166107435760405162461bcd60e51b815260206004820152602560248201527f45524332303a207472616e736665722066726f6d20746865207a65726f206164604482015264647265737360d81b6064820152608401610412565b6001600160a01b0382166107a55760405162461bcd60e51b815260206004820152602360248201527f45524332303a207472616e7366657220746f20746865207a65726f206164647260448201526265737360e81b6064820152608401610412565b6001600160a01b0383166000908152602081905260409020548181101561081d5760405162461bcd60e51b815260206004820152602660248201527f45524332303a207472616e7366657220616d6f756e7420657863656564732062604482015265616c616e636560d01b6064820152608401610412565b6001600160a01b03808516600090815260208190526040808220858503905591851681529081208054849290610854908490610ba6565b92505081905550826001600160a01b0316846001600160a01b03167fddf252ad1be2c89b69c2b068fc378daa952ba7f163c4a11628f55a4df523b3ef846040516108a091815260200190565b60405180910390a36106d9565b7f0000000000000000000000000000000000000000000000000000000000000000816108d860025490565b6108e29190610ba6565b11156109305760405162461bcd60e51b815260206004820152601960248201527f45524332304361707065643a20636170206578636565646564000000000000006044820152606401610412565b6103768282610461565b6001600160a01b03821661099a5760405162461bcd60e51b815260206004820152602160248201527f45524332303a206275726e2066726f6d20746865207a65726f206164647265736044820152607360f81b6064820152608401610412565b6001600160a01b03821660009081526020819052604090205481811015610a0e5760405162461bcd60e51b815260206004820152602260248201527f45524332303a206275726e20616d6f756e7420657863656564732062616c616e604482015261636560f01b6064820152608401610412565b6001600160a01b0383166000908152602081905260408120838303905560028054849290610a3d908490610ccb565b90915550506040518281526000906001600160a01b038516907fddf252ad1be2c89b69c2b068fc378daa952ba7f163c4a11628f55a4df523b3ef90602001610658565b80356001600160a01b0381168114610a9757600080fd5b919050565b600060208284031215610aad578081fd5b610ab682610a80565b9392505050565b60008060408385031215610acf578081fd5b610ad883610a80565b9150610ae660208401610a80565b90509250929050565b600080600060608486031215610b03578081fd5b610b0c84610a80565b9250610b1a60208501610a80565b9150604084013590509250925092565b60008060408385031215610b3c578182fd5b610b4583610a80565b946020939093013593505050565b6000602080835283518082850152825b81811015610b7f57858101830151858201604001528201610b63565b81811115610b905783604083870101525b50601f01601f1916929092016040019392505050565b60008219821115610bb957610bb9610d1d565b500190565b600181815b80851115610bf9578160001904821115610bdf57610bdf610d1d565b80851615610bec57918102915b93841c9390800290610bc3565b509250929050565b6000610ab660ff841683600082610c1a5750600161030b565b81610c275750600061030b565b8160018114610c3d5760028114610c4757610c63565b600191505061030b565b60ff841115610c5857610c58610d1d565b50506001821b61030b565b5060208310610133831016604e8410600b8410161715610c86575081810a61030b565b610c908383610bbe565b8060001904821115610ca457610ca4610d1d565b029392505050565b6000816000190483118215151615610cc657610cc6610d1d565b500290565b600082821015610cdd57610cdd610d1d565b500390565b600181811c90821680610cf657607f821691505b60208210811415610d1757634e487b7160e01b600052602260045260246000fd5b50919050565b634e487b7160e01b600052601160045260246000fdfea2646970667358221220034c4243dbe3be1aebea1abed2b1e60c80f524cc74cc969b55e328c2927425b164736f6c63430008040033",
  "linkReferences": {},
  "deployedLinkReferences": {}
}