{
  "_format": "hh-sol-artifact-1",
  "contractName": "NFTEE",
  "sourceName": "contracts/NFTEE.sol",
  "abi": [
    {
      "inputs": [],
      "stateMutability": "nonpayable",
      "type": "constructor"
    },
    {
      "anonymous": false,
      "inputs": [
        {
          "indexed": true,
          "internalType": "address",
          "name": "owner",
          "type": "address"
        },
        {
          "indexed": true,
          "internalType": "address",
          "name": "approved",
          "type": "address"
        },
        {
          "indexed": true,
          "internalType": "uint256",
          "name": "tokenId",
          "type": "uint256"
        }
      ],
      "name": "Approval",
      "type": "event"
    },
    {
      "anonymous": false,
      "inputs": [
        {
          "indexed": true,
          "internalType": "address",
          "name": "owner",
          "type": "address"
        },
        {
          "indexed": true,
          "internalType": "address",
          "name": "operator",
          "type": "address"
        },
        {
          "indexed": false,
          "internalType": "bool",
          "name": "approved",
          "type": "bool"
        }
      ],
      "name": "ApprovalForAll",
      "type": "event"
    },
    {
      "anonymous": false,
      "inputs": [
        {
          "indexed": true,
          "internalType": "uint256",
          "name": "nftId",
          "type": "uint256"
        },
        {
          "indexed": true,
          "internalType": "uint256",
          "name": "roundNumber",
          "type": "uint256"
        }
      ],
      "name": "ListingEvent",
      "type": "event"
    },
    {
      "anonymous": false,
      "inputs": [
        {
          "indexed": true,
          "internalType": "uint256",
          "name": "tokenId",
          "type": "uint256"
        },
        {
          "indexed": true,
          "internalType": "address",
          "name": "owner",
          "type": "address"
        }
      ],
      "name": "MintingEvent",
      "type": "event"
    },
    {
      "anonymous": false,
      "inputs": [
        {
          "indexed": true,
          "internalType": "address",
          "name": "from",
          "type": "address"
        },
        {
          "indexed": true,
          "internalType": "address",
          "name": "to",
          "type": "address"
        },
        {
          "indexed": true,
          "internalType": "uint256",
          "name": "tokenId",
          "type": "uint256"
        }
      ],
      "name": "Transfer",
      "type": "event"
    },
    {
      "anonymous": false,
      "inputs": [
        {
          "indexed": true,
          "internalType": "uint256",
          "name": "nftId",
          "type": "uint256"
        },
        {
          "indexed": true,
          "internalType": "address",
          "name": "voter",
          "type": "address"
        },
        {
          "indexed": false,
          "internalType": "uint256",
          "name": "vote",
          "type": "uint256"
        },
        {
          "indexed": false,
          "internalType": "uint256",
          "name": "tokenCount",
          "type": "uint256"
        }
      ],
      "name": "VotedForAnNFTEvent",
      "type": "event"
    },
    {
      "inputs": [],
      "name": "DEFAULT_FRACTIONS_COUNT",
      "outputs": [
        {
          "internalType": "uint256",
          "name": "",
          "type": "uint256"
        }
      ],
      "stateMutability": "view",
      "type": "function"
    },
    {
      "inputs": [],
      "name": "MINIMUM_INITIAL_LIQUIDITY",
      "outputs": [
        {
          "internalType": "uint256",
          "name": "",
          "type": "uint256"
        }
      ],
      "stateMutability": "view",
      "type": "function"
    },
    {
      "inputs": [],
      "name": "SECONDS_PER_BLOCK",
      "outputs": [
        {
          "internalType": "uint256",
          "name": "",
          "type": "uint256"
        }
      ],
      "stateMutability": "view",
      "type": "function"
    },
    {
      "inputs": [],
      "name": "SECONDS_PER_ROUND",
      "outputs": [
        {
          "internalType": "uint256",
          "name": "",
          "type": "uint256"
        }
      ],
      "stateMutability": "view",
      "type": "function"
    },
    {
      "inputs": [],
      "name": "WINNERS_PER_ROUND",
      "outputs": [
        {
          "internalType": "uint256",
          "name": "",
          "type": "uint256"
        }
      ],
      "stateMutability": "view",
      "type": "function"
    },
    {
      "inputs": [
        {
          "internalType": "uint256",
          "name": "farmId",
          "type": "uint256"
        }
      ],
      "name": "addProfitToFarm",
      "outputs": [],
      "stateMutability": "payable",
      "type": "function"
    },
    {
      "inputs": [
        {
          "internalType": "address",
          "name": "to",
          "type": "address"
        },
        {
          "internalType": "uint256",
          "name": "tokenId",
          "type": "uint256"
        }
      ],
      "name": "approve",
      "outputs": [],
      "stateMutability": "nonpayable",
      "type": "function"
    },
    {
      "inputs": [
        {
          "internalType": "address",
          "name": "owner",
          "type": "address"
        }
      ],
      "name": "balanceOf",
      "outputs": [
        {
          "internalType": "uint256",
          "name": "",
          "type": "uint256"
        }
      ],
      "stateMutability": "view",
      "type": "function"
    },
    {
      "inputs": [
        {
          "internalType": "uint256",
          "name": "farmId",
          "type": "uint256"
        }
      ],
      "name": "claimFarmRewards",
      "outputs": [],
      "stateMutability": "nonpayable",
      "type": "function"
    },
    {
      "inputs": [
        {
          "internalType": "uint256",
          "name": "tokenId",
          "type": "uint256"
        },
        {
          "internalType": "uint256",
          "name": "authorCutPercent",
          "type": "uint256"
        }
      ],
      "name": "createPool",
      "outputs": [],
      "stateMutability": "payable",
      "type": "function"
    },
    {
      "inputs": [
        {
          "internalType": "uint256",
          "name": "",
          "type": "uint256"
        },
        {
          "internalType": "address",
          "name": "",
          "type": "address"
        }
      ],
      "name": "farmBalances",
      "outputs": [
        {
          "internalType": "uint256",
          "name": "",
          "type": "uint256"
        }
      ],
      "stateMutability": "view",
      "type": "function"
    },
    {
      "inputs": [
        {
          "internalType": "uint256",
          "name": "",
          "type": "uint256"
        },
        {
          "internalType": "address",
          "name": "",
          "type": "address"
        }
      ],
      "name": "farmProfits",
      "outputs": [
        {
          "internalType": "uint256",
          "name": "",
          "type": "uint256"
        }
      ],
      "stateMutability": "view",
      "type": "function"
    },
    {
      "inputs": [
        {
          "internalType": "uint256",
          "name": "",
          "type": "uint256"
        }
      ],
      "name": "farm_data",
      "outputs": [
        {
          "internalType": "uint256",
          "name": "farmId",
          "type": "uint256"
        },
        {
          "internalType": "uint256",
          "name": "tokenId",
          "type": "uint256"
        },
        {
          "internalType": "bool",
          "name": "exists",
          "type": "bool"
        },
        {
          "internalType": "uint256",
          "name": "totalLiquidity",
          "type": "uint256"
        }
      ],
      "stateMutability": "view",
      "type": "function"
    },
    {
      "inputs": [
        {
          "internalType": "address",
          "name": "",
          "type": "address"
        },
        {
          "internalType": "uint256",
          "name": "",
          "type": "uint256"
        }
      ],
      "name": "fractionBalances",
      "outputs": [
        {
          "internalType": "uint256",
          "name": "",
          "type": "uint256"
        }
      ],
      "stateMutability": "view",
      "type": "function"
    },
    {
      "inputs": [
        {
          "internalType": "uint256",
          "name": "tokenId",
          "type": "uint256"
        }
      ],
      "name": "getApproved",
      "outputs": [
        {
          "internalType": "address",
          "name": "",
          "type": "address"
        }
      ],
      "stateMutability": "view",
      "type": "function"
    },
    {
      "inputs": [
        {
          "internalType": "address",
          "name": "owner",
          "type": "address"
        },
        {
          "internalType": "address",
          "name": "operator",
          "type": "address"
        }
      ],
      "name": "isApprovedForAll",
      "outputs": [
        {
          "internalType": "bool",
          "name": "",
          "type": "bool"
        }
      ],
      "stateMutability": "view",
      "type": "function"
    },
    {
      "inputs": [],
      "name": "lastTokenId",
      "outputs": [
        {
          "internalType": "uint256",
          "name": "",
          "type": "uint256"
        }
      ],
      "stateMutability": "view",
      "type": "function"
    },
    {
      "inputs": [
        {
          "internalType": "uint256",
          "name": "tokenId",
          "type": "uint256"
        }
      ],
      "name": "makeNewFarm",
      "outputs": [],
      "stateMutability": "nonpayable",
      "type": "function"
    },
    {
      "inputs": [
        {
          "internalType": "string",
          "name": "_tokenURI",
          "type": "string"
        }
      ],
      "name": "mint",
      "outputs": [
        {
          "internalType": "uint256",
          "name": "",
          "type": "uint256"
        }
      ],
      "stateMutability": "nonpayable",
      "type": "function"
    },
    {
      "inputs": [],
      "name": "name",
      "outputs": [
        {
          "internalType": "string",
          "name": "",
          "type": "string"
        }
      ],
      "stateMutability": "view",
      "type": "function"
    },
    {
      "inputs": [
        {
          "internalType": "uint256",
          "name": "tokenId",
          "type": "uint256"
        }
      ],
      "name": "ownerOf",
      "outputs": [
        {
          "internalType": "address",
          "name": "",
          "type": "address"
        }
      ],
      "stateMutability": "view",
      "type": "function"
    },
    {
      "inputs": [
        {
          "internalType": "uint256",
          "name": "",
          "type": "uint256"
        }
      ],
      "name": "pool_data",
      "outputs": [
        {
          "internalType": "uint256",
          "name": "tokenId",
          "type": "uint256"
        },
        {
          "internalType": "uint256",
          "name": "poolId",
          "type": "uint256"
        },
        {
          "internalType": "bool",
          "name": "exists",
          "type": "bool"
        },
        {
          "internalType": "uint256",
          "name": "nft_fractions",
          "type": "uint256"
        },
        {
          "internalType": "uint256",
          "name": "token_liq",
          "type": "uint256"
        }
      ],
      "stateMutability": "view",
      "type": "function"
    },
    {
      "inputs": [
        {
          "internalType": "address",
          "name": "from",
          "type": "address"
        },
        {
          "internalType": "address",
          "name": "to",
          "type": "address"
        },
        {
          "internalType": "uint256",
          "name": "tokenId",
          "type": "uint256"
        }
      ],
      "name": "safeTransferFrom",
      "outputs": [],
      "stateMutability": "nonpayable",
      "type": "function"
    },
    {
      "inputs": [
        {
          "internalType": "address",
          "name": "from",
          "type": "address"
        },
        {
          "internalType": "address",
          "name": "to",
          "type": "address"
        },
        {
          "internalType": "uint256",
          "name": "tokenId",
          "type": "uint256"
        },
        {
          "internalType": "bytes",
          "name": "data",
          "type": "bytes"
        }
      ],
      "name": "safeTransferFrom",
      "outputs": [],
      "stateMutability": "nonpayable",
      "type": "function"
    },
    {
      "inputs": [
        {
          "internalType": "address",
          "name": "operator",
          "type": "address"
        },
        {
          "internalType": "bool",
          "name": "approved",
          "type": "bool"
        }
      ],
      "name": "setApprovalForAll",
      "outputs": [],
      "stateMutability": "nonpayable",
      "type": "function"
    },
    {
      "inputs": [
        {
          "internalType": "uint256",
          "name": "farmId",
          "type": "uint256"
        },
        {
          "internalType": "uint256",
          "name": "fractionCount",
          "type": "uint256"
        }
      ],
      "name": "stakeToFarm",
      "outputs": [],
      "stateMutability": "nonpayable",
      "type": "function"
    },
    {
      "inputs": [
        {
          "internalType": "bytes4",
          "name": "interfaceId",
          "type": "bytes4"
        }
      ],
      "name": "supportsInterface",
      "outputs": [
        {
          "internalType": "bool",
          "name": "",
          "type": "bool"
        }
      ],
      "stateMutability": "view",
      "type": "function"
    },
    {
      "inputs": [
        {
          "internalType": "uint256",
          "name": "poolId",
          "type": "uint256"
        },
        {
          "internalType": "uint256",
          "name": "fractionCount",
          "type": "uint256"
        }
      ],
      "name": "swap",
      "outputs": [],
      "stateMutability": "payable",
      "type": "function"
    },
    {
      "inputs": [],
      "name": "symbol",
      "outputs": [
        {
          "internalType": "string",
          "name": "",
          "type": "string"
        }
      ],
      "stateMutability": "view",
      "type": "function"
    },
    {
      "inputs": [
        {
          "internalType": "uint256",
          "name": "",
          "type": "uint256"
        }
      ],
      "name": "tokenIdToFarmMap",
      "outputs": [
        {
          "internalType": "uint256",
          "name": "",
          "type": "uint256"
        }
      ],
      "stateMutability": "view",
      "type": "function"
    },
    {
      "inputs": [
        {
          "internalType": "uint256",
          "name": "",
          "type": "uint256"
        }
      ],
      "name": "tokenToPoolMap",
      "outputs": [
        {
          "internalType": "uint256",
          "name": "",
          "type": "uint256"
        }
      ],
      "stateMutability": "view",
      "type": "function"
    },
    {
      "inputs": [
        {
          "internalType": "uint256",
          "name": "tokenId",
          "type": "uint256"
        }
      ],
      "name": "tokenURI",
      "outputs": [
        {
          "internalType": "string",
          "name": "",
          "type": "string"
        }
      ],
      "stateMutability": "view",
      "type": "function"
    },
    {
      "inputs": [
        {
          "internalType": "address",
          "name": "from",
          "type": "address"
        },
        {
          "internalType": "address",
          "name": "to",
          "type": "address"
        },
        {
          "internalType": "uint256",
          "name": "tokenId",
          "type": "uint256"
        }
      ],
      "name": "transferFrom",
      "outputs": [],
      "stateMutability": "nonpayable",
      "type": "function"
    },
    {
      "inputs": [
        {
          "internalType": "uint256",
          "name": "farmId",
          "type": "uint256"
        },
        {
          "internalType": "uint256",
          "name": "fractionCount",
          "type": "uint256"
        }
      ],
      "name": "unstakeFromFarm",
      "outputs": [],
      "stateMutability": "nonpayable",
      "type": "function"
    }
  ],
  "bytecode": "0x60806040523480156200001157600080fd5b5060408051808201825260058152644e6674656560d81b6020808301918252835180850190945260038452624e544560e81b9084015281519192916200005a916000916200008b565b508051620000709060019060208401906200008b565b5050600a80546001600160a01b03191633179055506200016e565b828054620000999062000131565b90600052602060002090601f016020900481019282620000bd576000855562000108565b82601f10620000d857805160ff191683800117855562000108565b8280016001018555821562000108579182015b8281111562000108578251825591602001919060010190620000eb565b50620001169291506200011a565b5090565b5b808211156200011657600081556001016200011b565b600181811c908216806200014657607f821691505b602082108114156200016857634e487b7160e01b600052602260045260246000fd5b50919050565b6123f6806200017e6000396000f3fe6080604052600436106101f85760003560e01c80638a2bd5df1161010d578063c67b8cc3116100a0578063d96073cf1161006f578063d96073cf1461064f578063e985e9c514610662578063f3a1d95f146106ab578063f4354214146106e3578063f84ddf0b1461071057600080fd5b8063c67b8cc3146105da578063c87b56dd146105ef578063d12980ea1461060f578063d85d3d271461062f57600080fd5b8063a7e82079116100dc578063a7e820791461052c578063b416110e1461059a578063b88d4fde146105ba578063c1d74258146101fd57600080fd5b80638a2bd5df146104b157806395d89b41146104bf57806399e2206d146104d4578063a22cb4651461050c57600080fd5b806323b872dd1161019057806356c01f221161015f57806356c01f22146103a9578063612883fb146103e15780636352211e1461045e57806370a082311461047e57806374a110c21461049e57600080fd5b806323b872dd1461031c57806335fe79be1461033c5780633729ae211461035c57806342842e0e1461038957600080fd5b8063081812fc116101cc578063081812fc1461028d578063095ea7b3146102c55780630998bb40146102e75780631cecfca11461030757600080fd5b806280c1ae146101fd57806301e7cb021461022557806301ffc9a71461023b57806306fdde031461026b575b600080fd5b34801561020957600080fd5b50610212600281565b6040519081526020015b60405180910390f35b34801561023157600080fd5b5061021261271081565b34801561024757600080fd5b5061025b610256366004611ffc565b610725565b604051901515815260200161021c565b34801561027757600080fd5b50610280610777565b60405161021c9190612194565b34801561029957600080fd5b506102ad6102a83660046120a1565b610809565b6040516001600160a01b03909116815260200161021c565b3480156102d157600080fd5b506102e56102e0366004611fd3565b610830565b005b3480156102f357600080fd5b506102e56103023660046120a1565b61094b565b34801561031357600080fd5b50610212601e81565b34801561032857600080fd5b506102e5610337366004611e89565b610978565b34801561034857600080fd5b506102e56103573660046120db565b6109a9565b34801561036857600080fd5b506102126103773660046120a1565b600c6020526000908152604090205481565b34801561039557600080fd5b506102e56103a4366004611e89565b610ad3565b3480156103b557600080fd5b506102126103c43660046120b9565b601060209081526000928352604080842090915290825290205481565b3480156103ed57600080fd5b5061042f6103fc3660046120a1565b600b60205260009081526040902080546001820154600283015460038401546004909401549293919260ff909116919085565b60405161021c959493929190948552602085019390935290151560408401526060830152608082015260a00190565b34801561046a57600080fd5b506102ad6104793660046120a1565b610aee565b34801561048a57600080fd5b50610212610499366004611e3d565b610b4e565b6102e56104ac3660046120db565b610bd4565b6102e56103023660046120a1565b3480156104cb57600080fd5b50610280610e18565b3480156104e057600080fd5b506102126104ef3660046120b9565b601160209081526000928352604080842090915290825290205481565b34801561051857600080fd5b506102e5610527366004611f99565b610e27565b34801561053857600080fd5b506105746105473660046120a1565b600e6020526000908152604090208054600182015460028301546003909301549192909160ff9091169084565b60408051948552602085019390935290151591830191909152606082015260800161021c565b3480156105a657600080fd5b506102e56105b53660046120db565b610e32565b3480156105c657600080fd5b506102e56105d5366004611ec4565b610f51565b3480156105e657600080fd5b50610212601481565b3480156105fb57600080fd5b5061028061060a3660046120a1565b610f89565b34801561061b57600080fd5b506102e561062a3660046120a1565b61109a565b34801561063b57600080fd5b5061021261064a366004612034565b611186565b6102e561065d3660046120db565b611221565b34801561066e57600080fd5b5061025b61067d366004611e57565b6001600160a01b03918216600090815260056020908152604080832093909416825291909152205460ff1690565b3480156106b757600080fd5b506102126106c6366004611fd3565b600d60209081526000928352604080842090915290825290205481565b3480156106ef57600080fd5b506102126106fe3660046120a1565b600f6020526000908152604090205481565b34801561071c57600080fd5b50610212611515565b60006001600160e01b031982166380ac58cd60e01b148061075657506001600160e01b03198216635b5e139f60e01b145b8061077157506301ffc9a760e01b6001600160e01b03198316145b92915050565b606060008054610786906122fe565b80601f01602080910402602001604051908101604052809291908181526020018280546107b2906122fe565b80156107ff5780601f106107d4576101008083540402835291602001916107ff565b820191906000526020600020905b8154815290600101906020018083116107e257829003601f168201915b5050505050905090565b600061081482611525565b506000908152600460205260409020546001600160a01b031690565b600061083b82610aee565b9050806001600160a01b0316836001600160a01b031614156108ae5760405162461bcd60e51b815260206004820152602160248201527f4552433732313a20617070726f76616c20746f2063757272656e74206f776e656044820152603960f91b60648201526084015b60405180910390fd5b336001600160a01b03821614806108ca57506108ca813361067d565b61093c5760405162461bcd60e51b815260206004820152603e60248201527f4552433732313a20617070726f76652063616c6c6572206973206e6f7420746f60448201527f6b656e206f776e6572206e6f7220617070726f76656420666f7220616c6c000060648201526084016108a5565b6109468383611587565b505050565b8061095560095490565b8111156109745760405162461bcd60e51b81526004016108a5906121f9565b5050565b61098233826115f5565b61099e5760405162461bcd60e51b81526004016108a590612222565b610946838383611673565b816109b360095490565b8111156109d25760405162461bcd60e51b81526004016108a5906121f9565b6000838152600e60209081526040808320600101548084526010835281842033855290925290912054831115610a4a5760405162461bcd60e51b815260206004820152601a60248201527f4e6f7420656e6f7567682062616c616e636520696e206661726d00000000000060448201526064016108a5565b600081815260106020908152604080832033845290915281208054859290610a739084906122bb565b90915550506000848152600e602052604081206003018054859290610a999084906122bb565b9091555050336000908152600d6020908152604080832084845290915281208054859290610ac8908490612270565b909155505050505050565b61094683838360405180602001604052806000815250610f51565b6000818152600260205260408120546001600160a01b0316806107715760405162461bcd60e51b8152602060048201526018602482015277115490cdcc8c4e881a5b9d985b1a59081d1bdad95b88125160421b60448201526064016108a5565b60006001600160a01b038216610bb85760405162461bcd60e51b815260206004820152602960248201527f4552433732313a2061646472657373207a65726f206973206e6f7420612076616044820152683634b21037bbb732b960b91b60648201526084016108a5565b506001600160a01b031660009081526003602052604090205490565b81610bde60075490565b811115610c205760405162461bcd60e51b815260206004820152601060248201526f125b9d985b1a59081d1bdad95b88125960821b60448201526064016108a5565b6064821115610c715760405162461bcd60e51b815260206004820152601b60248201527f43616e6e6f7420636c61696d206d6f7265207468616e2031303025000000000060448201526064016108a5565b60143411610cc15760405162461bcd60e51b815260206004820152601d60248201527f4e6f20696e697469616c206c69717569646974792070726f766964656400000060448201526064016108a5565b610cca83610aee565b6001600160a01b0316336001600160a01b031614610d2a5760405162461bcd60e51b815260206004820152601c60248201527f4f6e6c79206f776e65722063616e206c69737420616e2061737365740000000060448201526064016108a5565b610d35333085610978565b610d43600880546001019055565b6000610d4e60085490565b905060006064610d608561271061229c565b610d6a9190612288565b90506040518060a0016040528086815260200183815260200160011515815260200182612710610d9a91906122bb565b8152346020918201526000848152600b82526040808220845181558484015160018201558482015160028201805460ff191691151591909117905560608501516003820155608090940151600490940193909355878152600c825282812094909455338452600d815281842096845295909552939020929092555050565b606060018054610786906122fe565b61097433838361180f565b81610e3c60095490565b811115610e5b5760405162461bcd60e51b81526004016108a5906121f9565b6000838152600e6020908152604080832060010154338452600d835281842081855290925290912054831115610ed35760405162461bcd60e51b815260206004820152601d60248201527f496e73756666696369656e74206672616374696f6e2062616c616e636500000060448201526064016108a5565b336000908152600d6020908152604080832084845290915281208054859290610efd9084906122bb565b9091555050600084815260106020908152604080832033845290915281208054859290610f2b908490612270565b90915550506000848152600e602052604081206003018054859290610ac8908490612270565b610f5b33836115f5565b610f775760405162461bcd60e51b81526004016108a590612222565b610f83848484846118de565b50505050565b6060610f9482611525565b60008281526006602052604081208054610fad906122fe565b80601f0160208091040260200160405190810160405280929190818152602001828054610fd9906122fe565b80156110265780601f10610ffb57610100808354040283529160200191611026565b820191906000526020600020905b81548152906001019060200180831161100957829003601f168201915b50505050509050600061104460408051602081019091526000815290565b9050805160001415611057575092915050565b815115611089578082604051602001611071929190612128565b60405160208183030381529060405292505050919050565b61109284611911565b949350505050565b600a546001600160a01b031633146110b157600080fd5b806110bb60075490565b8111156110fd5760405162461bcd60e51b815260206004820152601060248201526f125b9d985b1a59081d1bdad95b88125960821b60448201526064016108a5565b61110b600980546001019055565b600061111660095490565b6000848152600f602090815260408083208490558051608081018252848152808301978852600181830181815260608301868152968652600e9094529190932092518355955195820195909555935160028501805460ff1916911515919091179055516003909301929092555050565b6000611196600780546001019055565b60006111a160075490565b90506111ad3382611985565b6111ed8185858080601f016020809104026020016040519081016040528093929190818152602001838380828437600092019190915250611ac792505050565b604051339082907f394567d00aaa992bb8ad351eeef7d57db51a0e54af3d224f7831331df65b4cf590600090a39392505050565b6000341180156112315750600081115b1561128d5760405162461bcd60e51b815260206004820152602660248201527f496e76616c69642063616c6c2e2043616e6e6f7420646563696465207768696360448201526568207369646560d01b60648201526084016108a5565b6000828152600b6020526040812060048101546003909101546112b0919061229c565b6000848152600b6020908152604091829020825160a08101845281548152600182015492810192909252600281015460ff1615159282019290925260038201546060820152600490910154608082015290915034156113be57600034826080015161131b9190612270565b6113259084612288565b826060015161133491906122bb565b905080600b6000878152602001908152602001600020600301600082825461135c91906122bb565b90915550506000858152600b602052604081206004018054349290611382908490612270565b9091555050336000908152600d6020908152604080832085518452909152812080548392906113b2908490612270565b90915550610f83915050565b336000908152600d60209081526040808320878452600b83528184205484529091529020548311156114325760405162461bcd60e51b815260206004820152601f60248201527f4e6f7420656e6f756768206672616374696f6e7320696e2062616c616e63650060448201526064016108a5565b60008382606001516114449190612270565b61144e9084612288565b826080015161145d91906122bb565b905080600b6000878152602001908152602001600020600401600082825461148591906122bb565b9091555050604051339082156108fc029083906000818181858888f193505050501580156114b7573d6000803e3d6000fd5b506000858152600b6020526040812060030180548692906114d9908490612270565b9091555050336000908152600d6020908152604080832085518452909152812080548692906115099084906122bb565b90915550505050505050565b600061152060075490565b905090565b6000818152600260205260409020546001600160a01b03166115845760405162461bcd60e51b8152602060048201526018602482015277115490cdcc8c4e881a5b9d985b1a59081d1bdad95b88125160421b60448201526064016108a5565b50565b600081815260046020526040902080546001600160a01b0319166001600160a01b03841690811790915581906115bc82610aee565b6001600160a01b03167f8c5be1e5ebec7d5bd14f71427d1e84f3dd0314c0f7b2291e5b200ac8c7c3b92560405160405180910390a45050565b60008061160183610aee565b9050806001600160a01b0316846001600160a01b0316148061164857506001600160a01b0380821660009081526005602090815260408083209388168352929052205460ff165b806110925750836001600160a01b031661166184610809565b6001600160a01b031614949350505050565b826001600160a01b031661168682610aee565b6001600160a01b0316146116ea5760405162461bcd60e51b815260206004820152602560248201527f4552433732313a207472616e736665722066726f6d20696e636f72726563742060448201526437bbb732b960d91b60648201526084016108a5565b6001600160a01b03821661174c5760405162461bcd60e51b8152602060048201526024808201527f4552433732313a207472616e7366657220746f20746865207a65726f206164646044820152637265737360e01b60648201526084016108a5565b611757600082611587565b6001600160a01b03831660009081526003602052604081208054600192906117809084906122bb565b90915550506001600160a01b03821660009081526003602052604081208054600192906117ae908490612270565b909155505060008181526002602052604080822080546001600160a01b0319166001600160a01b0386811691821790925591518493918716917fddf252ad1be2c89b69c2b068fc378daa952ba7f163c4a11628f55a4df523b3ef91a4505050565b816001600160a01b0316836001600160a01b031614156118715760405162461bcd60e51b815260206004820152601960248201527f4552433732313a20617070726f766520746f2063616c6c65720000000000000060448201526064016108a5565b6001600160a01b03838116600081815260056020908152604080832094871680845294825291829020805460ff191686151590811790915591519182527f17307eab39ab6107e8899845ad3d59bd9653f200f220920489ca2b5937696c31910160405180910390a3505050565b6118e9848484611673565b6118f584848484611b61565b610f835760405162461bcd60e51b81526004016108a5906121a7565b606061191c82611525565b600061193360408051602081019091526000815290565b90506000815111611953576040518060200160405280600081525061197e565b8061195d84611c6e565b60405160200161196e929190612128565b6040516020818303038152906040525b9392505050565b6001600160a01b0382166119db5760405162461bcd60e51b815260206004820181905260248201527f4552433732313a206d696e7420746f20746865207a65726f206164647265737360448201526064016108a5565b6000818152600260205260409020546001600160a01b031615611a405760405162461bcd60e51b815260206004820152601c60248201527f4552433732313a20746f6b656e20616c7265616479206d696e7465640000000060448201526064016108a5565b6001600160a01b0382166000908152600360205260408120805460019290611a69908490612270565b909155505060008181526002602052604080822080546001600160a01b0319166001600160a01b03861690811790915590518392907fddf252ad1be2c89b69c2b068fc378daa952ba7f163c4a11628f55a4df523b3ef908290a45050565b6000828152600260205260409020546001600160a01b0316611b425760405162461bcd60e51b815260206004820152602e60248201527f45524337323155524953746f726167653a2055524920736574206f66206e6f6e60448201526d32bc34b9ba32b73a103a37b5b2b760911b60648201526084016108a5565b6000828152600660209081526040909120825161094692840190611d88565b60006001600160a01b0384163b15611c6357604051630a85bd0160e11b81526001600160a01b0385169063150b7a0290611ba5903390899088908890600401612157565b602060405180830381600087803b158015611bbf57600080fd5b505af1925050508015611bef575060408051601f3d908101601f19168201909252611bec91810190612018565b60015b611c49573d808015611c1d576040519150601f19603f3d011682016040523d82523d6000602084013e611c22565b606091505b508051611c415760405162461bcd60e51b81526004016108a5906121a7565b805181602001fd5b6001600160e01b031916630a85bd0160e11b149050611092565b506001949350505050565b606081611c925750506040805180820190915260018152600360fc1b602082015290565b8160005b8115611cbc5780611ca681612339565b9150611cb59050600a83612288565b9150611c96565b60008167ffffffffffffffff811115611ce557634e487b7160e01b600052604160045260246000fd5b6040519080825280601f01601f191660200182016040528015611d0f576020820181803683370190505b5090505b841561109257611d246001836122bb565b9150611d31600a86612354565b611d3c906030612270565b60f81b818381518110611d5f57634e487b7160e01b600052603260045260246000fd5b60200101906001600160f81b031916908160001a905350611d81600a86612288565b9450611d13565b828054611d94906122fe565b90600052602060002090601f016020900481019282611db65760008555611dfc565b82601f10611dcf57805160ff1916838001178555611dfc565b82800160010185558215611dfc579182015b82811115611dfc578251825591602001919060010190611de1565b50611e08929150611e0c565b5090565b5b80821115611e085760008155600101611e0d565b80356001600160a01b0381168114611e3857600080fd5b919050565b600060208284031215611e4e578081fd5b61197e82611e21565b60008060408385031215611e69578081fd5b611e7283611e21565b9150611e8060208401611e21565b90509250929050565b600080600060608486031215611e9d578081fd5b611ea684611e21565b9250611eb460208501611e21565b9150604084013590509250925092565b60008060008060808587031215611ed9578081fd5b611ee285611e21565b9350611ef060208601611e21565b925060408501359150606085013567ffffffffffffffff80821115611f13578283fd5b818701915087601f830112611f26578283fd5b813581811115611f3857611f38612394565b604051601f8201601f19908116603f01168101908382118183101715611f6057611f60612394565b816040528281528a6020848701011115611f78578586fd5b82602086016020830137918201602001949094529598949750929550505050565b60008060408385031215611fab578182fd5b611fb483611e21565b915060208301358015158114611fc8578182fd5b809150509250929050565b60008060408385031215611fe5578182fd5b611fee83611e21565b946020939093013593505050565b60006020828403121561200d578081fd5b813561197e816123aa565b600060208284031215612029578081fd5b815161197e816123aa565b60008060208385031215612046578182fd5b823567ffffffffffffffff8082111561205d578384fd5b818501915085601f830112612070578384fd5b81358181111561207e578485fd5b86602082850101111561208f578485fd5b60209290920196919550909350505050565b6000602082840312156120b2578081fd5b5035919050565b600080604083850312156120cb578182fd5b82359150611e8060208401611e21565b600080604083850312156120ed578182fd5b50508035926020909101359150565b600081518084526121148160208601602086016122d2565b601f01601f19169290920160200192915050565b6000835161213a8184602088016122d2565b83519083019061214e8183602088016122d2565b01949350505050565b6001600160a01b038581168252841660208201526040810183905260806060820181905260009061218a908301846120fc565b9695505050505050565b60208152600061197e60208301846120fc565b60208082526032908201527f4552433732313a207472616e7366657220746f206e6f6e20455243373231526560408201527131b2b4bb32b91034b6b83632b6b2b73a32b960711b606082015260800190565b6020808252600f908201526e125b9d985b1a590819985c9b481a59608a1b604082015260600190565b6020808252602e908201527f4552433732313a2063616c6c6572206973206e6f7420746f6b656e206f776e6560408201526d1c881b9bdc88185c1c1c9bdd995960921b606082015260800190565b6000821982111561228357612283612368565b500190565b6000826122975761229761237e565b500490565b60008160001904831182151516156122b6576122b6612368565b500290565b6000828210156122cd576122cd612368565b500390565b60005b838110156122ed5781810151838201526020016122d5565b83811115610f835750506000910152565b600181811c9082168061231257607f821691505b6020821081141561233357634e487b7160e01b600052602260045260246000fd5b50919050565b600060001982141561234d5761234d612368565b5060010190565b6000826123635761236361237e565b500690565b634e487b7160e01b600052601160045260246000fd5b634e487b7160e01b600052601260045260246000fd5b634e487b7160e01b600052604160045260246000fd5b6001600160e01b03198116811461158457600080fdfea264697066735822122049648f615a6c18d659a62deae71604613e442365b56dd008758651731373016564736f6c63430008040033",
  "linkReferences": {},
  "deployedLinkReferences": {}
}