{
  "_format": "hh-sol-artifact-1",
  "contractName": "DynamicToken",
  "sourceName": "contracts/DynamicToken.sol",
  "abi": [
    {
      "inputs": [],
      "stateMutability": "nonpayable",
      "type": "constructor"
    },
    {
      "anonymous": false,
      "inputs": [
        {
          "indexed": true,
          "internalType": "address",
          "name": "owner",
          "type": "address"
        },
        {
          "indexed": true,
          "internalType": "address",
          "name": "spender",
          "type": "address"
        },
        {
          "indexed": false,
          "internalType": "uint256",
          "name": "value",
          "type": "uint256"
        }
      ],
      "name": "Approval",
      "type": "event"
    },
    {
      "anonymous": false,
      "inputs": [
        {
          "indexed": true,
          "internalType": "uint256",
          "name": "tokenId",
          "type": "uint256"
        },
        {
          "indexed": true,
          "internalType": "address",
          "name": "owner",
          "type": "address"
        }
      ],
      "name": "MintingEvent",
      "type": "event"
    },
    {
      "anonymous": false,
      "inputs": [
        {
          "indexed": true,
          "internalType": "address",
          "name": "previousOwner",
          "type": "address"
        },
        {
          "indexed": true,
          "internalType": "address",
          "name": "newOwner",
          "type": "address"
        }
      ],
      "name": "OwnershipTransferred",
      "type": "event"
    },
    {
      "anonymous": false,
      "inputs": [
        {
          "indexed": true,
          "internalType": "address",
          "name": "from",
          "type": "address"
        },
        {
          "indexed": true,
          "internalType": "address",
          "name": "to",
          "type": "address"
        },
        {
          "indexed": false,
          "internalType": "uint256",
          "name": "value",
          "type": "uint256"
        }
      ],
      "name": "Transfer",
      "type": "event"
    },
    {
      "inputs": [],
      "name": "INITIAL_SUPPLY",
      "outputs": [
        {
          "internalType": "uint256",
          "name": "",
          "type": "uint256"
        }
      ],
      "stateMutability": "view",
      "type": "function"
    },
    {
      "inputs": [
        {
          "internalType": "address",
          "name": "owner",
          "type": "address"
        },
        {
          "internalType": "address",
          "name": "spender",
          "type": "address"
        }
      ],
      "name": "allowance",
      "outputs": [
        {
          "internalType": "uint256",
          "name": "",
          "type": "uint256"
        }
      ],
      "stateMutability": "view",
      "type": "function"
    },
    {
      "inputs": [
        {
          "internalType": "address",
          "name": "spender",
          "type": "address"
        },
        {
          "internalType": "uint256",
          "name": "amount",
          "type": "uint256"
        }
      ],
      "name": "approve",
      "outputs": [
        {
          "internalType": "bool",
          "name": "",
          "type": "bool"
        }
      ],
      "stateMutability": "nonpayable",
      "type": "function"
    },
    {
      "inputs": [
        {
          "internalType": "address",
          "name": "account",
          "type": "address"
        }
      ],
      "name": "balanceOf",
      "outputs": [
        {
          "internalType": "uint256",
          "name": "",
          "type": "uint256"
        }
      ],
      "stateMutability": "view",
      "type": "function"
    },
    {
      "inputs": [],
      "name": "baseTokenValue",
      "outputs": [
        {
          "internalType": "uint256",
          "name": "",
          "type": "uint256"
        }
      ],
      "stateMutability": "view",
      "type": "function"
    },
    {
      "inputs": [],
      "name": "decimals",
      "outputs": [
        {
          "internalType": "uint8",
          "name": "",
          "type": "uint8"
        }
      ],
      "stateMutability": "view",
      "type": "function"
    },
    {
      "inputs": [
        {
          "internalType": "address",
          "name": "spender",
          "type": "address"
        },
        {
          "internalType": "uint256",
          "name": "subtractedValue",
          "type": "uint256"
        }
      ],
      "name": "decreaseAllowance",
      "outputs": [
        {
          "internalType": "bool",
          "name": "",
          "type": "bool"
        }
      ],
      "stateMutability": "nonpayable",
      "type": "function"
    },
    {
      "inputs": [
        {
          "internalType": "address",
          "name": "stakeholder",
          "type": "address"
        }
      ],
      "name": "getStakeholderTokenValue",
      "outputs": [
        {
          "internalType": "uint256",
          "name": "",
          "type": "uint256"
        }
      ],
      "stateMutability": "view",
      "type": "function"
    },
    {
      "inputs": [],
      "name": "getTokenValue",
      "outputs": [
        {
          "internalType": "uint256",
          "name": "",
          "type": "uint256"
        }
      ],
      "stateMutability": "view",
      "type": "function"
    },
    {
      "inputs": [
        {
          "internalType": "address",
          "name": "spender",
          "type": "address"
        },
        {
          "internalType": "uint256",
          "name": "addedValue",
          "type": "uint256"
        }
      ],
      "name": "increaseAllowance",
      "outputs": [
        {
          "internalType": "bool",
          "name": "",
          "type": "bool"
        }
      ],
      "stateMutability": "nonpayable",
      "type": "function"
    },
    {
      "inputs": [],
      "name": "name",
      "outputs": [
        {
          "internalType": "string",
          "name": "",
          "type": "string"
        }
      ],
      "stateMutability": "view",
      "type": "function"
    },
    {
      "inputs": [],
      "name": "owner",
      "outputs": [
        {
          "internalType": "address",
          "name": "",
          "type": "address"
        }
      ],
      "stateMutability": "view",
      "type": "function"
    },
    {
      "inputs": [
        {
          "internalType": "uint256",
          "name": "amount",
          "type": "uint256"
        }
      ],
      "name": "redeemTokens",
      "outputs": [],
      "stateMutability": "nonpayable",
      "type": "function"
    },
    {
      "inputs": [],
      "name": "registerStakeholder",
      "outputs": [],
      "stateMutability": "nonpayable",
      "type": "function"
    },
    {
      "inputs": [],
      "name": "renounceOwnership",
      "outputs": [],
      "stateMutability": "nonpayable",
      "type": "function"
    },
    {
      "inputs": [
        {
          "internalType": "address",
          "name": "stakeholder",
          "type": "address"
        },
        {
          "internalType": "uint256",
          "name": "amount",
          "type": "uint256"
        }
      ],
      "name": "rewardStakeholder",
      "outputs": [],
      "stateMutability": "nonpayable",
      "type": "function"
    },
    {
      "inputs": [
        {
          "internalType": "address",
          "name": "",
          "type": "address"
        }
      ],
      "name": "stakeholders",
      "outputs": [
        {
          "internalType": "bool",
          "name": "isRegistered",
          "type": "bool"
        },
        {
          "internalType": "uint256",
          "name": "balance",
          "type": "uint256"
        }
      ],
      "stateMutability": "view",
      "type": "function"
    },
    {
      "inputs": [],
      "name": "symbol",
      "outputs": [
        {
          "internalType": "string",
          "name": "",
          "type": "string"
        }
      ],
      "stateMutability": "view",
      "type": "function"
    },
    {
      "inputs": [],
      "name": "totalSupply",
      "outputs": [
        {
          "internalType": "uint256",
          "name": "",
          "type": "uint256"
        }
      ],
      "stateMutability": "view",
      "type": "function"
    },
    {
      "inputs": [
        {
          "internalType": "address",
          "name": "to",
          "type": "address"
        },
        {
          "internalType": "uint256",
          "name": "amount",
          "type": "uint256"
        }
      ],
      "name": "transfer",
      "outputs": [
        {
          "internalType": "bool",
          "name": "",
          "type": "bool"
        }
      ],
      "stateMutability": "nonpayable",
      "type": "function"
    },
    {
      "inputs": [
        {
          "internalType": "address",
          "name": "from",
          "type": "address"
        },
        {
          "internalType": "address",
          "name": "to",
          "type": "address"
        },
        {
          "internalType": "uint256",
          "name": "amount",
          "type": "uint256"
        }
      ],
      "name": "transferFrom",
      "outputs": [
        {
          "internalType": "bool",
          "name": "",
          "type": "bool"
        }
      ],
      "stateMutability": "nonpayable",
      "type": "function"
    },
    {
      "inputs": [
        {
          "internalType": "address",
          "name": "newOwner",
          "type": "address"
        }
      ],
      "name": "transferOwnership",
      "outputs": [],
      "stateMutability": "nonpayable",
      "type": "function"
    }
  ],
  "bytecode": "0x6080604052670de0b6b3a76400006007553480156200001d57600080fd5b50604080518082018252600c81526b223cb730b6b4b1aa37b5b2b760a11b602080830191825283518085019094526006845265222a27a5a2a760d11b9084015281519192916200007091600391620001fd565b50805162000086906004906020840190620001fd565b505050620000a36200009d620000bf60201b60201c565b620000c3565b620000b93369152d02c7e14af680000062000115565b62000305565b3390565b600580546001600160a01b038381166001600160a01b0319831681179093556040519116919082907f8be0079c531659141344cd1fd0a4f28419497f9722a3daafe3b4186f6b6457e090600090a35050565b6001600160a01b038216620001705760405162461bcd60e51b815260206004820152601f60248201527f45524332303a206d696e7420746f20746865207a65726f206164647265737300604482015260640160405180910390fd5b8060026000828254620001849190620002a3565b90915550506001600160a01b03821660009081526020819052604081208054839290620001b3908490620002a3565b90915550506040518181526001600160a01b038316906000907fddf252ad1be2c89b69c2b068fc378daa952ba7f163c4a11628f55a4df523b3ef9060200160405180910390a35050565b8280546200020b90620002c8565b90600052602060002090601f0160209004810192826200022f57600085556200027a565b82601f106200024a57805160ff19168380011785556200027a565b828001600101855582156200027a579182015b828111156200027a5782518255916020019190600101906200025d565b50620002889291506200028c565b5090565b5b808211156200028857600081556001016200028d565b60008219821115620002c357634e487b7160e01b81526011600452602481fd5b500190565b600181811c90821680620002dd57607f821691505b60208210811415620002ff57634e487b7160e01b600052602260045260246000fd5b50919050565b610f2880620003156000396000f3fe608060405234801561001057600080fd5b50600436106101425760003560e01c8063715018a6116100b8578063a6e158f81161007c578063a6e158f814610275578063a9059cbb14610288578063c07cfca91461029b578063dd62ed3e146102df578063ed656d11146102f2578063f2fde38b1461030557600080fd5b8063715018a61461022d5780637eca4df6146102375780638da5cb5b1461023f57806395d89b411461025a578063a457c2d71461026257600080fd5b806318160ddd1161010a57806318160ddd146101b657806323b872dd146101be5780632ff2e9dc146101d1578063313ce567146101e257806339509351146101f157806370a082311461020457600080fd5b806305b2db791461014757806305d0608d1461016d57806306fdde031461017657806306ffce531461018b578063095ea7b314610193575b600080fd5b61015a610155366004610cda565b610318565b6040519081526020015b60405180910390f35b61015a60075481565b61017e6103bd565b6040516101649190610da9565b61015a61044f565b6101a66101a1366004610d68565b610489565b6040519015158152602001610164565b60025461015a565b6101a66101cc366004610d2d565b6104a1565b61015a69152d02c7e14af680000081565b60405160128152602001610164565b6101a66101ff366004610d68565b6104c5565b61015a610212366004610cda565b6001600160a01b031660009081526020819052604090205490565b6102356104e7565b005b6102356104fb565b6005546040516001600160a01b039091168152602001610164565b61017e61056c565b6101a6610270366004610d68565b61057b565b610235610283366004610d91565b6105f6565b6101a6610296366004610d68565b610706565b6102c86102a9366004610cda565b6008602052600090815260409020805460019091015460ff9091169082565b604080519215158352602083019190915201610164565b61015a6102ed366004610cfb565b610714565b610235610300366004610d68565b61073f565b610235610313366004610cda565b610833565b6001600160a01b03811660009081526008602052604081205460ff166103595760405162461bcd60e51b815260040161035090610dfc565b60405180910390fd5b6001600160a01b0382166000908152600860205260408120600101549061037f60025490565b905081158061038c575080155b1561039c57505060075492915050565b81600754476103ab9190610e6b565b6103b59190610e4b565b949350505050565b6060600380546103cc90610ea1565b80601f01602080910402602001604051908101604052809291908181526020018280546103f890610ea1565b80156104455780601f1061041a57610100808354040283529160200191610445565b820191906000526020600020905b81548152906001019060200180831161042857829003601f168201915b5050505050905090565b60008061045b60025490565b90508061046a57505060075490565b80600754476104799190610e6b565b6104839190610e4b565b91505090565b6000336104978185856108ac565b5060019392505050565b6000336104af8582856109d0565b6104ba858585610a44565b506001949350505050565b6000336104978185856104d88383610714565b6104e29190610e33565b6108ac565b6104ef610c12565b6104f96000610c6c565b565b3360009081526008602052604090205460ff16156105505760405162461bcd60e51b8152602060048201526012602482015271105b1c9958591e481c9959da5cdd195c995960721b6044820152606401610350565b336000908152600860205260409020805460ff19166001179055565b6060600480546103cc90610ea1565b600033816105898286610714565b9050838110156105e95760405162461bcd60e51b815260206004820152602560248201527f45524332303a2064656372656173656420616c6c6f77616e63652062656c6f77604482015264207a65726f60d81b6064820152608401610350565b6104ba82868684036108ac565b3360009081526008602052604090205460ff166106255760405162461bcd60e51b815260040161035090610dfc565b336000908152600860205260409020600101548111156106875760405162461bcd60e51b815260206004820181905260248201527f496e73756666696369656e74207374616b65686f6c6465722062616c616e63656044820152606401610350565b600061069161044f565b9050600061069f8284610e6b565b90506106ac333085610a44565b33600090815260086020526040812060010180548592906106ce908490610e8a565b9091555050604051339082156108fc029083906000818181858888f19350505050158015610700573d6000803e3d6000fd5b50505050565b600033610497818585610a44565b6001600160a01b03918216600090815260016020908152604080832093909416825291909152205490565b610747610c12565b6001600160a01b03821660009081526008602052604090205460ff1661077f5760405162461bcd60e51b815260040161035090610dfc565b806107956102126005546001600160a01b031690565b10156107e35760405162461bcd60e51b815260206004820152601a60248201527f496e73756666696369656e7420746f6b656e2062616c616e63650000000000006044820152606401610350565b6107ff6107f86005546001600160a01b031690565b8383610a44565b6001600160a01b0382166000908152600860205260408120600101805483929061082a908490610e33565b90915550505050565b61083b610c12565b6001600160a01b0381166108a05760405162461bcd60e51b815260206004820152602660248201527f4f776e61626c653a206e6577206f776e657220697320746865207a65726f206160448201526564647265737360d01b6064820152608401610350565b6108a981610c6c565b50565b6001600160a01b03831661090e5760405162461bcd60e51b8152602060048201526024808201527f45524332303a20617070726f76652066726f6d20746865207a65726f206164646044820152637265737360e01b6064820152608401610350565b6001600160a01b03821661096f5760405162461bcd60e51b815260206004820152602260248201527f45524332303a20617070726f766520746f20746865207a65726f206164647265604482015261737360f01b6064820152608401610350565b6001600160a01b0383811660008181526001602090815260408083209487168084529482529182902085905590518481527f8c5be1e5ebec7d5bd14f71427d1e84f3dd0314c0f7b2291e5b200ac8c7c3b925910160405180910390a3505050565b60006109dc8484610714565b905060001981146107005781811015610a375760405162461bcd60e51b815260206004820152601d60248201527f45524332303a20696e73756666696369656e7420616c6c6f77616e63650000006044820152606401610350565b61070084848484036108ac565b6001600160a01b038316610aa85760405162461bcd60e51b815260206004820152602560248201527f45524332303a207472616e736665722066726f6d20746865207a65726f206164604482015264647265737360d81b6064820152608401610350565b6001600160a01b038216610b0a5760405162461bcd60e51b815260206004820152602360248201527f45524332303a207472616e7366657220746f20746865207a65726f206164647260448201526265737360e81b6064820152608401610350565b6001600160a01b03831660009081526020819052604090205481811015610b825760405162461bcd60e51b815260206004820152602660248201527f45524332303a207472616e7366657220616d6f756e7420657863656564732062604482015265616c616e636560d01b6064820152608401610350565b6001600160a01b03808516600090815260208190526040808220858503905591851681529081208054849290610bb9908490610e33565b92505081905550826001600160a01b0316846001600160a01b03167fddf252ad1be2c89b69c2b068fc378daa952ba7f163c4a11628f55a4df523b3ef84604051610c0591815260200190565b60405180910390a3610700565b6005546001600160a01b031633146104f95760405162461bcd60e51b815260206004820181905260248201527f4f776e61626c653a2063616c6c6572206973206e6f7420746865206f776e65726044820152606401610350565b600580546001600160a01b038381166001600160a01b0319831681179093556040519116919082907f8be0079c531659141344cd1fd0a4f28419497f9722a3daafe3b4186f6b6457e090600090a35050565b80356001600160a01b0381168114610cd557600080fd5b919050565b600060208284031215610ceb578081fd5b610cf482610cbe565b9392505050565b60008060408385031215610d0d578081fd5b610d1683610cbe565b9150610d2460208401610cbe565b90509250929050565b600080600060608486031215610d41578081fd5b610d4a84610cbe565b9250610d5860208501610cbe565b9150604084013590509250925092565b60008060408385031215610d7a578182fd5b610d8383610cbe565b946020939093013593505050565b600060208284031215610da2578081fd5b5035919050565b6000602080835283518082850152825b81811015610dd557858101830151858201604001528201610db9565b81811115610de65783604083870101525b50601f01601f1916929092016040019392505050565b6020808252601a908201527f5374616b65686f6c646572206e6f742072656769737465726564000000000000604082015260600190565b60008219821115610e4657610e46610edc565b500190565b600082610e6657634e487b7160e01b81526012600452602481fd5b500490565b6000816000190483118215151615610e8557610e85610edc565b500290565b600082821015610e9c57610e9c610edc565b500390565b600181811c90821680610eb557607f821691505b60208210811415610ed657634e487b7160e01b600052602260045260246000fd5b50919050565b634e487b7160e01b600052601160045260246000fdfea26469706673582212201e6404d67573214b9be48ee441519ac7026e2d8ae2d19694544207e308fd6e0f64736f6c63430008040033",
  "linkReferences": {},
  "deployedLinkReferences": {}
}